:020000040800F2
:1000000098060020CD0100089B090008E3050008C0
:10001000F9080008870200088912000800000000A3
:100020000000000000000000000000008D0B000830
:100030008503000800000000150A0008690C00088C
:10004000E7010008E7010008E7010008E7010008F0
:10005000E7010008E7010008E7010008E7010008E0
:10006000E7010008E7010008E7010008E7010008D0
:10007000E7010008E7010008E7010008E7010008C0
:10008000E7010008E7010008E7010008E7010008B0
:10009000E7010008E7010008E7010008E7010008A0
:1000A000E7010008E7010008E7010008E701000890
:1000B000AD0C0008E7010008E7010008E7010008AF
:1000C000E7010008E7010008E7010008E701000870
:1000D000E7010008E7010008E7010008550F0008E4
:1000E0000B040008E7010008E7010008E701000829
:1000F000E7010008E7010008E7010008E701000840
:10010000E7010008E7010008E7010008E70100082F
:10011000E7010008E7010008E7010008E70100081F
:10012000E7010008E7010008E7010008E70100080F
:1001300000F002F800F03AF80AA090E8000C8244BF
:100140008344AAF10107DA4501D100F02FF8AFF29C
:10015000090EBAE80F0013F0010F18BFFB1A43F0A5
:1001600001031847C8110000E8110000103A24BF2D
:1001700078C878C1FAD8520724BF30C830C144BF0C
:1001800004680C607047000000230024002500264E
:10019000103A28BF78C1FBD8520728BF30C148BFEA
:1001A0000B6070471FB51FBD10B510BD00F031F8D2
:1001B0001146FFF7F7FF01F088F800F04FF803B49D
:1001C000FFF7F2FF03BC00F057F800000948804732
:1001D00009480047FEE7FEE7FEE7FEE7FEE7FEE729
:1001E000FEE7FEE7FEE7FEE704480549054A064B41
:1001F000704700006D0C00083101000898000020D5
:10020000980600209802002098020020704770474E
:100210007047754600F02CF8AE4605006946534617
:1002200020F00700854618B020B5FFF7DDFFBDE8D8
:1002300020404FF000064FF000074FF000084FF04D
:10024000000B21F00701AC46ACE8C009ACE8C009DE
:10025000ACE8C009ACE8C0098D46704710B504464B
:10026000AFF300802046BDE81040FFF7A8BF0000B4
:10027000004870473400002001491820ABBEFEE75B
:10028000260002007047FEE70349D22008700349A8
:10029000D8200870704700000500002006000020EC
:1002A0002DE9F041284D1021284600F098F904214D
:1002B000284600F094F92548E914264C90F90020CE
:1002C0002348002A1BDD2368934202D200F087F9FD
:1002D00001E000F082F90121284600F07EF91E4875
:1002E0001E4F4FF4007690F90000002813DD2168BE
:1002F00081421FD24021284600F071F91EE0E8DA61
:10030000236852429342E4D200F067F90121284663
:1003100000F065F9E3E70DDA21684042814209D235
:100320004021284600F059F931463846BDE8F041F1
:1003300000F055B94021284600F04FF931463846C3
:10034000BDE8F04100F049B900140140050000206B
:1003500000100140000000200600002000200140A5
:1003600004490020087004490870044908700449D1
:1003700008707047040000200500002006000020DF
:1003800007000020704710B5044602E08C2000F002
:1003900005F8641EE4B2F9D210BD000031B50C4D71
:1003A0000098012184B2284600F0E0FC214628464E
:1003B00000F0FCFC03E0284600F0E2FC0446012CBF
:1003C000F9D82846BDE83840002100F0CFBC000035
:1003D0000004004000EBC0014FF0E02041610169E2
:1003E00041F0010101610169C903FCD500210161EE
:1003F0008161704700B502464FF47A7302E01846F7
:10040000FFF7E8FF521EFAD200BD10B54FF480642A
:10041000204600F011F8002806D0204600F006F82B
:10042000BDE8104000F018B910BD00000149086097
:100430007047000014040140064A0146002012687B
:10044000044B0A4014331B680B4202D0002A00D030
:10045000012070470004014030B51A4A83790168D1
:1004600053B313688B431360111D0B680468A343D7
:100470000B60017911440B68046823430B60114B36
:10048000083319680468A14319601C1D21680568B8
:10049000A94321604179102905D011440A680068F8
:1004A00002430A6030BD196802681143196021686F
:1004B00000680143216030BD0079104402688A431E
:1004C000026030BD0004014010B50121042000F09D
:1004D000C5FA0121082000F0C1FA0121102000F026
:1004E000BDFA0121202000F0B9FA0121402000F0DE
:1004F000B5FA0121802000F0B1FA0121BDE81040D9
:10050000080200F0ABBA000010B58A0721F003041E
:100510000649120F21440F238C6893409C438C6042
:100520008B68904003438B6010BD000000000140C9
:10053000F0B5CC78002204F00F03E40601D58C78E6
:1005400023430C784FF00F0C14F0FF0F4FF0010E07
:100550001BD005680E880EFA02F42640A64210D180
:1005600096000CFA06F725EA070703FA06F5CE7897
:100570003D43282E02D0482E02D002E0446100E024
:100580000461521C082AE5D305600A88FF2A1CD999
:100590004468002202F108060EFA06F50E882E4085
:1005A000AE420ED196000CFA06F7BC4303FA06F7EA
:1005B000CE783C43282E00D14561CE78482E00D11C
:1005C0000561521C082AE5D34460F0BD02460020B4
:1005D00092680A4200D00120704741617047016172
:1005E0007047FEE77FB50121084600F037FA4FF467
:1005F0008064ADF80C4048208DF80F0003208DF882
:100600000E0003A91348FFF793FF0A210320FFF709
:100610007BFF0C2000948DF8050000248DF8044029
:1006200001258DF806506846FFF716FF4FF4A060CD
:1006300000F0E6F928208DF808008DF809408DF8C3
:100640000A408DF80B5002A800F0A8F900F0FEFB5C
:100650007FBD0000001401402DE9F04700240F2069
:10066000FFF791FE3A4E4FF4806739463046FFF768
:10067000ADFF012865D037492820087002E001202D
:10068000FFF781FE39463046FFF7A0FF0028F6D07D
:10069000DFF8C4900025B046002602E00120FFF7F5
:1006A00072FE39464046FFF791FF0028F6D102E07E
:1006B0000120FFF768FE39464046FFF787FF002814
:1006C000F6D006E00120FFF75EFE641CE4B21E2CAB
:1006D00037D239464046FFF779FF0028F2D119F8A2
:1006E00005004946400809F80500082C03D340F0EE
:1006F000800009F80500761C0024F6B2082ED0D33D
:100700006D1CEDB2042DC7D3C97899F80200C94316
:10071000C9B2884215D11149432816D005DC1528E5
:1007200009D040280DD1492006E044280BD04628A6
:1007300007D1412000E04220087007490120491EEE
:100740000870BDE8F0874320F6E74420F4E7000096
:10075000001401400C000020190000200A000020B5
:1007600070B5002400F02EF86420FFF743FE382017
:1007700000F05EF80C2000F05BF8062000F058F85E
:10078000012000F055F86420FFF734FE802000F0CF
:100790004FF80B4D285D00F07DF8641C64B20B2C03
:1007A000F8DBC02000F044F8054D00240C35285D2E
:1007B00000F070F8641C64B2082CF8DB70BD000017
:1007C00016130008F8B54FF40050ADF800001025DE
:1007D000154E8DF8035003248DF8024069463046CB
:1007E000FFF7A6FEA802ADF800008DF803508DF8C3
:1007F000024069463046FFF79BFEE802ADF8000074
:100800008DF803508DF8024069463046FFF790FEA0
:10081000FF20ADF800008DF803508DF802406946C6
:100820000248FFF785FEF8BD00100140001C0140A2
:1008300070B504461420FFF7CDFD14494FF47F0234
:100840000A600C60124C49142046FFF7C6FE4FF4B4
:1008500080412046FFF7C1FE4FF40045294620465F
:10086000FFF7BBFE0A20FFF7B5FD29462046FFF73C
:10087000B6FE0A20FFF7AEFD29462046FFF7ADFE83
:10088000BDE870400A20FFF7A5BD0000101C014024
:100890000010014070B504461420FFF79BFD144979
:1008A0004FF47F020A600C60124C49142046FFF797
:1008B00096FE4FF480412046FFF78FFE4FF400452F
:1008C00029462046FFF789FE0A20FFF783FD2946C7
:1008D0002046FFF784FE0A20FFF77CFD29462046CC
:1008E000FFF77BFEBDE870400A20FFF773BD0000F4
:1008F000101C014000100140FEE70000F8B54FF465
:100900000050ADF8000002208DF802001C4E1024AB
:100910008DF8034069463046FFF70AFEE501ADF861
:10092000005069463046FFF703FEADF800506946B7
:100930001448FFF7FDFD0120134DADF80000694696
:100940002846FFF7F5FD4020ADF80000694628462F
:10095000FFF7EEFD6001ADF8000069463046FFF795
:10096000E7FDADF8004069462846FFF7E1FD0420A9
:10097000ADF8000069462846FFF7DAFDF8BD000033
:1009800000200140001001400014014010B5FFF7A5
:10099000B5FFBDE81040FFF7E3BC704730B50F234B
:1009A000C27801780125F2B1144A126801F1E02100
:1009B00002F4E062C2F5E062120AC2F10404D3401C
:1009C0004278A24084781C401443220181F800241C
:1009D000007800F01F018D404009800000F1E02008
:1009E000C0F8005130BD01F01F008540480980006B
:1009F00000F1E020C0F8805130BD00000CED00E0B7
:100A00000249084302490860704700000000FA05E7
:100A10000CED00E07047000070B50446084D0AE098
:100A200081B22846641C00F09BFB4021284600F060
:100A3000FEFA0028F9D094F900000028F0D170BD2A
:100A400000480040044A0029D16901D0014300E078
:100A50008143D1617047000000100240044A002920
:100A6000916901D0014300E081439161704700002A
:100A70000010024030B5204A5168204B11F00C01A3
:100A800003D0042901D0082901D0036012E0516885
:100A9000536801F470114FF0020413F4803F04EB2B
:100AA000914102D053689B0301D5154B00E0134BD5
:100AB0005943016051680F2303EA1111114B5C5C2B
:100AC0000168E14041605468072505EA14241C5D73
:100AD00021FA04F48460546805EAD4241B5DD940EB
:100AE000C1605268032303EA9232064B1B1F9A5CD3
:100AF000B1FBF2F1016130BD0010024000127A003A
:100B000000093D0021000020F8B54FF48070ADF8D9
:100B1000000048251B4E8DF8035003248DF8024039
:100B200069463046FFF704FD4020ADF800008DF81F
:100B300003508DF8024069463046FFF7F9FC10205B
:100B4000ADF800008DF803508DF80240694630463C
:100B5000FFF7EEFC8020ADF800008DF803508DF813
:100B6000024069460848FFF7E3FC0420ADF80000A6
:100B70008DF803508DF8024069463046FFF7D8FCE7
:100B8000F8BD000000200140001001407047000047
:100B900038B54FF48054ADF8004010208DF80300B4
:100BA0000320064D8DF8020069462846FFF7C0FC79
:100BB00021462846FFF713FD38BD00000014014010
:100BC0000CB50022264800920192016841F4803160
:100BD00001604FF4A063016801F4003101910099B4
:100BE000491C0091019911B900999942F3D101680A
:100BF000890333D5012101911A490A6842F0100294
:100C00000A600A6822F003020A600A6842F00202DF
:100C10000A604168416041684160416841F4806117
:100C20004160416821F47C114160416841F4E81160
:100C30004160016841F08071016001688901FCD563
:100C4000416821F003014160416841F002014160C7
:100C50004168C1F381010229FAD10CBD01920CBD9A
:100C60000010024000200240704700000C4801685C
:100C700041F00101016041680A4A11404160016888
:100C8000094A11400160016821F480210160416836
:100C900021F4FE0141604FF41F018160FFF790BF16
:100CA000001002400000FFF8FFFFF6FE10B5012122
:100CB0008C07204600F066F800281BD00121204652
:100CC00000F051F80C490878401CC0B208700A289E
:100CD00010D300240C700949094A0868401C0860B8
:100CE00013785B1C1370322800D30C60BDE81040F1
:100CF000FFF7D6BA10BD00000B0000200000002056
:100D0000080000207FB501210846FFF79BFE632005
:100D1000ADF804004720ADF8000000244FF08045F6
:100D2000ADF80640ADF802406946284600F040F8AC
:100D30000121284600F017F801221146284600F04C
:100D40002DF80121284600F011F81C208DF80C0028
:100D50008DF80D4001208DF80E008DF80F0003A8CE
:100D6000FFF71CFE7FBDC94301827047002901883F
:100D700002D041F0010101E021F001010180704742
:100D8000808C704702460020138A92890B4202EA47
:100D9000010202D0002A00D001207047002A828977
:100DA00001D00A4300E08A43828170478184704702
:100DB00030B502881B4C1C4DA0420DD0A8420BD070
:100DC000B0F1804F08D0194B984205D0184B98428B
:100DD00002D0184B984203D122F070034A881A437C
:100DE000154B984206D0154B984203D022F440731D
:100DF000CA881A4302808A8882850A880285A042AE
:100E00000AD0A84208D00E4A904205D00D4A90421E
:100E100002D00D4A904201D1097A018601218182D6
:100E200030BD0000002C01400034014000040040AF
:100E300000080040000C004000100040001400407A
:100E40000040014000440140004801400EB501212E
:100E50000220FFF7F7FD0120ADF804004720ADF8B0
:100E600000001020ADF8020069460248FFF7A0FF1D
:100E70000EBD0000000400400EB501210420FFF764
:100E8000E1FD4FF6FF70ADF804004720ADF800001B
:100E90000020ADF8020069460148FFF789FF0EBD4A
:100EA0000008004070B50446012186B08804FFF7B1
:100EB000C9FD4FF48060ADF8100002258DF8125086
:100EC0001820224E8DF8130004A93046FFF730FB9E
:100ED00004218DF813104802ADF8100004A9304623
:100EE000FFF726FB00940024ADF808400C20184EB4
:100EF000ADF80440ADF80A00ADF80640ADF80C407E
:100F00006946304600F0D2F8012240F225513046C1
:100F100000F0B3F80121304600F07FF84021304660
:100F200000F078F84FF4A060FFF76AFD27208DF8F5
:100F300014008DF815408DF8165001208DF817001B
:100F400005A8FFF72BFD06B070BD0000000C0140A6
:100F5000004800402DE9F0412A4C40F2255120463E
:100F600000F06CF8284EA514A8B3204600F0F4F861
:100F7000C4B2612C12D129463046FFF730FB41F252
:100F800088373846FFF736FA29463046FFF725FB03
:100F90003846FFF72FFA1DA0FFF73EFD1C490888D1
:100FA000020406D443044FF0000207D50A2C02D0F5
:100FB0000A80BDE8F08140F400400FE00D2C0BD01A
:100FC000C0F30D03124D401CAD1C80B2EC540880E0
:100FD0000728EDD8EDE703E040F480400880E8E71B
:100FE00029463046FFF7FBFA4FF47A742046FFF7A4
:100FF00001FA29463046FFF7F0FA2046BDE8F041F5
:10100000FFF7F8B900480040001801404F4B0000BE
:101010000E000020C943018070470029818902D059
:1010200041F4005101E021F40051818170470246F2
:10103000002012880A4200D00120704770B501F0EC
:101040001F0501260024C1F3421306FA05F2012B05
:101050000FD0022B0FD0838A4FEA11210088134250
:1010600006FA01F600EA060001D000B1012420468C
:1010700070BD8389F0E7038AEEE710B5C1F3421330
:1010800001F01F040121A140012B07D0022B07D042
:101090001430002A026805D00A4304E00C30F8E757
:1010A0001030F6E78A43026010BD000030B50446F8
:1010B000008A85B00D464CF6FF710840E98801436F
:1010C0002182A0894EF6F3110840A9882A8911438C
:1010D0006A8902431143A181A08A4FF6FF4108406B
:1010E000A9890143A1826846FFF7C4FC19488442DC
:1010F00001D1039800E00298A189090400EBC00126
:1011000001EB0010296801D5490000E08900B0FB1F
:10111000F1F06422B0FBF2F109010B096FF0180540
:101120006B4300EB8300A3891D044FF0320306D507
:1011300003EBC000B0FBF2F000F0070005E003EBAA
:101140000010B0FBF2F000F00F000843208105B062
:1011500030BD0000003801408088C0F308007047AF
:10116000C1F30801818070472DE9FF5F4FF480448F
:10117000ADF8084048208DF80B0003258DF80A5083
:1011800002A93E48FFF7D4F9DFF8F4B00126ADF824
:10119000086002A95846FFF7CBF94FF01008ADF8E8
:1011A000088002A95846FFF7C3F94FF48079ADF8DB
:1011B0000890DFF8D0A08DF80B808DF80A5002A9B6
:1011C0005046FFF7B5F90420ADF8080002A95846CB
:1011D000FFF7AEF94020ADF8080002A95846FFF726
:1011E000A7F90E210120FFF78FF90C2700948DF845
:1011F000057000248DF804408DF806406846FFF71E
:101200002BF900210846FFF77FF98DF805708DF85E
:10121000044000968DF806406846FFF71DF904214A
:101220000846FFF771F98DF805708DF80440CDF888
:1012300000808DF806406846FFF70EF94FF4E06035
:10124000FFF7DEFB28208DF80C008DF80D408DF89F
:101250000E508DF80F6003A8FFF7A0FBFFF70CFE00
:1012600049465046FFF7BBF904215846FFF7B7F946
:1012700040215846FFF7B3F9BDE8FF9F000C01403D
:101280000018014000140140FEE7000038B54FF49B
:101290008054ADF8004010208DF803000320064D67
:1012A0008DF8020069462846FFF742F92146284694
:1012B000FFF795F938BD0000001801404FF0E0201D
:1012C000016921F004010161704710B5FFF7F6FFD5
:1012D000FFF7FAF8FFF7DAFFFFF742FAFFF782F9B4
:1012E000FFF710FDFFF752FBFFF752FCFFF70CFC76
:1012F0004FF49640FFF7D6FDFFF736FFFEF7C4FF29
:1013000044F62060FFF776F8FFF72AF80A20FFF787
:1013100071F8002010BD48616E74656368204D430C
:101320005500436F6D6D616E643A00004C13000808
:1013300000000020340000006C0100088013000849
:10134000340000206406000088010008000000004E
:10135000D8D8D8D8000049000000000000000000E4
:101360000000000000000000000204060800000069
:10137000000102030401020304060708090000003B
:0400000508000131BD
:00000001FF
